:020000040800F2
:1000000000040020410100085114000851140008A8
:10001000511400085114000851140008511400082C
:10002000511400085114000851140008010300087D
:10003000511400085114000851140008511400080C
:1000400051140008511400085114000851140008FC
:1000500051140008511400085114000851140008EC
:10006000511400085114000851140008812F000891
:10007000512F0008212F0008F12E0008C12E000882
:10008000912E0008612E000851140008B12D0008BF
:1000900031340008511400085114000851140008AC
:1000A000511400085114000851140008511400089C
:1000B000C12D000851140008511400085114000803
:1000C000511400085114000851140008511400087C
:1000D000511400085114000851140008511400086C
:1000E000511400085114000851140008511400085C
:1000F000511400085114000851140008511400084C
:10010000511400085114000851140008511400083B
:10011000511400085114000851140008511400082B
:10012000511400085114000851140008511400081B
:10013000511400085114000851140008511400080B
:1001400072B6214880F30988022080F31488BFF337
:100150006F8F01F095F903F03BF81C481C491D4ACC
:1001600091423CBF41F8040BFAE71B49164A914201
:100170003CBF41F8040BFAE71849194A194B9A4257
:100180003EBF51F8040B42F8040BF8E70020164973
:10019000164A91423CBF41F8040BFAE701F068F9B6
:1001A000134C144DAC4203DA54F8041B8847F9E7AA
:1001B00002F0D6F8104C114DAC4203DA54F8041B8F
:1001C0008847F9E701F04CB900080020555555550E
:1001D000000000200004002000040020584800080F
:1001E000000800203808002038080020F011002006
:1001F00040010008400100084001000840010008DB
:100200002DE9F04FC1F80CD0D0F80CD0BDE8F08F3C
:10021000002383F311882846A047002001F010F93D
:1002200000F0DEFC00DFFEE7000000000000000040
:10023000012230B402FA01F304899BB213EA0405E7
:1002400002D030BC10467047890001F1804101F5B1
:10025000B8410A68234322F4F04222F0400282F0BF
:10026000300242F4004242F080020381284630BC52
:100270000A6070470000000000000000000000005D
:1002800090F87630426880F87E300649126843F074
:10029000800310B50446CB640AB1012190470323C3
:1002A000237010BD005C0040000000000000000052
:1002B000704700BF000000000000000000000000C8
:1002C00090F8743003F06003202B01D000207047B9
:1002D00090F87530212B03D0222B09D0202BF5D19B
:1002E0000649072200238166C26603670120704722
:1002F00000238366C366036701207047000800205F
:10030000EFF30983203383F30988002383F31188F3
:10031000704700BF00000000000000000000000067
:1003200010B4202383F31188094C0A4B2268196802
:10033000C31D23F00703891A8B429DBF9B182360BE
:1003400010460020002383F311885DF8044B7047AA
:10035000480C0020F40B002000000000000000000A
:1003600010B4202383F31188037F072B0ED8DFE816
:1003700003F0270D0D2308040D08026A936801336A
:10038000936090E80C001A60026853604FF0FF34ED
:10039000002281680D4B046202771B689A688A42CA
:1003A000FBD25A680021036042601060586081F3FC
:1003B00011885DF8044B7047036A00221A60E5E774
:1003C000002383F311885DF8044B70473010002040
:1003D000FEE700BF00000000000000000000000079
:1003E00090F8642038B5062A0AD80123934013F008
:1003F000670F044611D113F0080502D1DB062ED495
:1004000038BDC3689B699B68002BF9D1036F03B1AA
:100410009847002384F8643038BD1C4A416813684B
:100420000D6823F4F04323F0400383F0100343F4FA
:10043000004343F080031360136823F4904323F0D8
:10044000700383F4805343F4004343F0800313604C
:100450000DB10521A847062384F8643038BDC36870
:1004600005225B69294680F864201D70DD605D60AF
:100470009D6002F0F5FE202383F311882046294673
:10048000FFF7D6FE85F3118838BD00BF005C004041
:10049000F8B5046AD4F8542213681978042900D0F6
:1004A000F8BD217A0229FBD112791B89012606FAAF
:1004B00002F212EA0305F3D1226CE36BA16BD31AAB
:1004C0005B1AEDD085F31188D4F8541204F130078B
:1004D0000A680979104602EB8102D26852695360BA
:1004E00016709560D76002F0BBFE202383F311885D
:1004F000D4F8543218681979BDE8F840FFF798BE6F
:100500000D4AF0B410689469056801270026A168B7
:100510002B466A60156007779061267700E01B68BC
:100520009A688A42FBD85A68214623606260146048
:100530005C60F0BCFFF764BE3010002000000000DB
:10054000012230B402FA01F344899BB213EA040594
:1005500002D030BC10467047890001F1804101F59E
:10056000B8410A68234322F4904222F0700282F4D8
:10057000405242F4004242F080024381284630BC9F
:100580000A6070470000000000000000000000004A
:1005900038B590F864300446062B26D8DFE803F01F
:1005A00004452D0404260400334A416813680D688D
:1005B00023F4F04323F0400383F0100343F400439B
:1005C00043F080031360136823F4904323F0700317
:1005D00083F4805343F4004343F0800313600DB170
:1005E0000521A847062384F8643038BD036F03B1A2
:1005F0009847002384F8643038BDC3689B690025A0
:10060000032284F8642029461D70DD605D609D60D2
:10061000204602F065FE202383F3118820462946F8
:10062000FFF78EFF85F3118838BD90F87B2090F896
:100630007A30C16E43EA02238B42C368DED91D8A39
:10064000B1FBF5F205FB1215002DD7D15B692946E8
:100650001D70DD605D609D6002F002FE202383F36B
:10066000118820462946FFF7E3FD85F31188022310
:1006700084F8643038BD00BF005C0040000000001A
:10068000F8B50446BC4B00221B6D80F8642003F1D2
:10069000005303F5405303EBC10149008B6800F19F
:1006A000740203F1005303F540535B0000F17C0634
:1006B00053F8041B22F8021BB242F9D163689B680D
:1006C0006BB32046984750B3E56E94F8743094F8B5
:1006D0007B1094F87A2042EA0122AA423CBF1546D8
:1006E000E26613F0800FE36840F0B280002D40F026
:1006F00097805B69052284F8642020461D70DD60C8
:100700005D609D60294602F0ABFD202383F31188D4
:1007100020462946FFF78CFD85F31188F8BD94F833
:10072000743013F0600722D0934A616813680D6833
:1007300023F4F04323F0400383F0100343F4004319
:1007400043F080031360136823F4904323F0700395
:1007500083F4805343F4004343F08003136015B1E6
:1007600020460521A847062384F86430F8BD94F894
:10077000755003F07F0242EA0525B5F5407F00F091
:100780001A8118D9B5F5C06F00F0FC8040F28F8057
:10079000B5F5106F00F0998040F60242954200F0E6
:1007A000E380B5F5006FBFD104F17F020125276713
:1007B000A266E5668BE7022D00F00D8140F2CA804B
:1007C000B5F5807F00F09480B5F5817FACD194F8C9
:1007D0007620002AA8D194F8781011F00F021AD0D0
:1007E000920002F1804202F5B84211F0800F1168C8
:1007F00040F0158101F44051B1F5405F0BD0136812
:1008000023F4F04323F0400343F4204343F08003F8
:10081000136094F874300025A566E566256756E7F1
:100820009B69A26E0026042184F864102046DA60D9
:100830005D601E709E60314602F052FD202383F3FE
:10084000118820463146FFF77BFE86F31188F8BDFC
:10085000BDB15B69A26E0026012184F864102046B8
:10086000DA605D601E709E60314602F0F9FC202364
:1008700083F3118820463146FFF7DAFC86F31188AE
:10088000F8BD9B69032284F8642020461D70DD605A
:100890005D609D60294602F023FD202383F31188CB
:1008A00020462946FFF74CFE85F31188F8BD40F23B
:1008B000023295422CD0B5F5A06F7FF435AF2F4AA8
:1008C000A766E7663D46226701E794F8762084F83C
:1008D0007F20002A40F0958003222270626812680F
:1008E000002A98D020460221904794F8743092E76D
:1008F00094F87620012A7FF417AFB4F87C20A7661D
:1009000022F00202E76627673D46A4F87C20DEE677
:1009100094F87620002A7FF407AF94F8781011F04D
:100920000F023FF478AF930003F1804303F5B8431F
:1009300009061A6800F1878022F4904222F07002C2
:1009400082F4805242F4004242F080021A6094F82D
:10095000743060E72DB902222567A666E266154667
:10096000B5E6012D7FF4E0AE054902250022A1661F
:10097000E5662267ABE600BF005C0040810200082C
:10098000803D0008616894F8792094F878304D68CB
:1009900043EA0223204694F8771094F87620A8477B
:1009A00000283FF4C1AE43680568A366E566276783
:1009B00094F874308BE694F87620012A7FF4B4AE74
:1009C000B4F87C20A76642F00202E76627673D463E
:1009D000A4F87C207BE694F87820224912F0800F5E
:1009E00002F00F0251F822200ED112F440523FF4CF
:1009F0009BAEB2F5805F0DD11B4AE5662767A26604
:100A000065E60422227069E712F030023FF48CAEF2
:100A1000102AF1D0154AE5662767A26657E601F06D
:100A2000300130293FF4F7AE136823F4F04323F08C
:100A3000400383F0200343F4004343F0800313603A
:100A400094F87430E7E622F4F04222F0400282F09B
:100A5000100242F4004242F080021A6094F87430AE
:100A6000D9E600BF005C0040A03D0008903D0008B2
:100A7000F8B5046AD4F8542213681978042900D010
:100A8000F8BD217A0229FBD1517901265A8903EB5D
:100A90008103DB6806FA01F111EA0205588AEFD1F9
:100AA000A369E2696169D21A531A9842E8D885F3BA
:100AB0001188B3FBF0F3D4F8542200FB03F351790F
:100AC000106804F10C0700EB8102D2689269536050
:100AD00016709560D76002F003FC202383F3118821
:100AE000D4F8543218685979BDE8F840FFF728BDAA
:100AF000536970B5144606460D4623B118460021C9
:100B0000102203F07DF8A06918B10021142203F02F
:100B100077F806EB8503DC6030462946BDE8704077
:100B200002F0EEBB0000000000000000000000002A
:100B3000202383F311880F4B5B6813F4006302D109
:100B400083F311887047EFF309834FF0807243F805
:100B5000042CA3F1200282F30988074A11689269E4
:100B60008968926891428CBF044A054A43F8082C70
:100B7000704700BF00ED00E03010002021020008A7
:100B80002402000800000000000000000000000037
:100B90000E4B0F495A688368096FD31A5B1AC268F3
:100BA000416830B4D0E90445E41845F1000501324C
:100BB0008B42C2608360C0E9044505D80268934255
:100BC00038BF036030BC70474360FBE7001000E0B3
:100BD00030100020000000000000000000000000B5
:100BE000FFF78EBC000000000000000000000000C5
:100BF000044B1A689B6992689B689A4200D87047B8
:100C0000FFF77EBC30100020000000000000000054
:100C1000074B30B41A689969146801250877636036
:100C200015771C60104630BC9A61FFF7E9BA00BF27
:100C30003010002000000000000000000000000054
:100C40004FF6FF732DE9F041994286B051D0494CDF
:100C50004FF08047254655F81C2F7B6A0129064630
:100C6000DFF814E1A06998BF0221AA4205909BB267
:100C7000CDF810E064D01944E38C89B21089CB1A06
:100C80009BB2834238BF7963834205D912681B1A2D
:100C900010899BB29842F9D34FF6FF7051680DF15D
:100CA000040802910192C1F80080C2F80480ADF8F6
:100CB0000C301189CB1A1381A0843046FFF7A8FFAE
:100CC000049B8BB1E3692B4A43451AD0029A019BDE
:100CD00000211360019BAB425A60049104D0BDF81F
:100CE0000C101A890A441A81A369186A06B0BDE873
:100CF000F081FFF78DFF1F4CA369186A06B0BDE8AD
:100D0000F081019E0023AE42D661756004932CD021
:100D10004FF08040416AD58CBDF80C7033898AB29F
:100D2000511B3B449BB289B28B423381DCD95B1AA5
:100D30009BB2012B98BF022313449BB24363D3E7BA
:100D4000CA180DF1040892B24FF0000E0220E3849D
:100D500001950295ADF80C10C4F81C80C4F82080F1
:100D60007A63C7F810E0F860A7E74FF08042D360DD
:100D7000BAE700BF30100020610300080000000047
:100D800069B10246074B10B49B694468042083E8AC
:100D90001400236053605DF8044BFFF751BF4FF020
:100DA000FF307047301000200000000000000000FD
:100DB0002DE9F04F83B004468B4615460193C76971
:100DC0004FF0200888F311880026B146A3680BF184
:100DD000010AFBB16269A368501C013B6061A3601A
:100DE0009BF800301370236962699A4224BFE3685C
:100DF00063610FB12046B84789F31188013D06F1C0
:100E0000010611D088F31188D346A3680BF1010ABB
:100E1000002BDFD1204601990093FFF7B1FF009B23
:100E20000028D3D083F31188304603B0BDE8F08F9B
:100E30003030FFF7BDBF00BF000000000000000021
:100E400030304FF6FF73FFF7B3BF00BF0000000064
:100E5000F8B504460F461646202383F3118805E0B3
:100E600020463146FFF78CFF002817DBA568002DD0
:100E7000F6D06269A368511C013B6161A3601770E1
:100E8000236962699A4224BFE3686361E3690BB135
:100E900020469847002080F31188F8BD85F311881B
:100EA000F8BD00BF000000000000000000000000CE
:100EB0003030FFF7CDBF00BF000000000000000091
:100EC00030304FF6FF72FFF7C3BF00BF00000000D5
:100ED0002DE9F04F044683B0894693461D46D0F86D
:100EE0001C80202787F311880026B2460197B8F1AD
:100EF000000F07D02046C04704E020462946FFF7F0
:100F00003FFFD0B9A768002FF7D0A269A368511C92
:100F1000013BA161A360137809F8013B2369A26931
:100F20009A4224BFE368A3618AF311880136B3456E
:100F300005D0019B83F31188D9E787F311883046E8
:100F400003B0BDE8F08F00BF00000000000000000B
:100F50000C30FFF7BDBF00BF000000000000000024
:100F60000C304FF6FF73FFF7B3BF00BF0000000067
:100F700070B520230E46044683F31188C3693BB144
:100F8000984705E020463146FFF7FAFE002813DBBC
:100F9000A568002DF6D0A169A36825694A1C013B0C
:100FA000AA42A36028BFE368A261087828BFA361B2
:100FB000002383F3118870BD85F3118870BD00BFD5
:100FC0000C30FFF7D5BF00BF00000000000000009C
:100FD0000C304FF6FF71FFF7CBBF00BF00000000E1
:100FE00008B50146202383F311880820FFF728FE67
:100FF000002383F3118808BD0000000000000000FA
:1010000010B4044600228168074B02771B689A6877
:101010008A42FBD25A6820462360626014605C609A
:101020005DF8044B704700BF301000200000000046
:10103000F8B50468A04221D00E460746002502E01C
:101040002468A7421AD0E3683343E36016B12269EB
:101050001342F5D06068A368416B027F0B430A2AF4
:1010600043630CD00B2AEBD1026A13409A42E7D1BA
:101070000562FFF7C5FF2468A742E4D1F8BD026A04
:101080001342DDD00562FFF7BBFFF4E7000000006C
:1010900001F111032DE9F04150F82340BCB107469E
:1010A0000D464FF0200888F3118804216018FFF7DF
:1010B000BFFF07EB8500C168E269A6696369498AD9
:1010C000921BD31A994204D9002383F31188BDE8F7
:1010D000F0814FF0000E8EF31188B3FBF1F3C2687C
:1010E00001FB03F392690C34012111705360C2F8C3
:1010F00008E0D4603846294602F0F2F888F31188F7
:1011000038462946FFF71CFADEE700BF0000000062
:10111000F8B500EB81039C6ABCB10E46054620275A
:1011200087F311880821201DFFF782FF226CE36BF3
:10113000A16BD31A5B1A18D105EB8601CB685A69EB
:1011400052681AB9002383F31188F8BD1B8A013B4A
:101150001340F7D183F31188CA68303452690121F2
:1011600053609360D46011700CE0002181F311880A
:1011700005EB8602D268303452690120D460536096
:10118000916010702846314602F06AF887F31188A2
:1011900028463146FFF74CF8D4E700BF00000000B6
:1011A000174B70B59D69202383F311880468C368C9
:1011B000A042AB631DD0E96B4BB11A68934203D0D8
:1011C0009268914238BF1146DB68002BF5D1034687
:1011D0002268A66B2046A9601A6053609C60DE609E
:1011E000A363FFF70DFFFFF703FD002383F31188CF
:1011F00070BD00238360002383F3118870BD00BF9E
:10120000301000200000000000000000000000007E
:10121000F8B5202383F31188324B82689C69002A39
:1012200057D0A16893680546994206D9137F91600B
:10123000062B35D0072B1FD0ABB12B4603E09968A6
:10124000A268914202D31B689D42F8D15A680620D9
:101250002360626014605C602562FFF7D9FC0023A4
:1012600083F31188F8BD92E80A00196010461268ED
:101270005360FFF7C5FEE0E717685068166A07601D
:1012800017683346786002E09868814202D81B688C
:101290009E42F9D15968136051600A605A60CCE7E8
:1012A00017685068166A076017683346786002E06E
:1012B0009868884202D31B689E42F9D1596813602E
:1012C00051600A605A60B268A16893689942ADD8CB
:1012D000B3E7A36B8460C360A063002383F311882A
:1012E000F8BD00BF3010002000000000000000002A
:1012F000F8B5202282F31188837F0021013BDBB205
:10130000837781F3118813B9017F0F2900D0F8BDCD
:10131000417F01F00301012902D002291ED0F8BD4E
:101320004369026904461A610269A0F10805536124
:1013300050F8086C06F1100738460836FFF768FFCA
:1013400033469E4204D09D4202D81B689E42FAD189
:101350001A688AB195420FD31346F2E705694469CA
:10136000016C256105696C6182F311880A6802606D
:10137000086083F31188CAE754F8041C44F8082C69
:101380001D6001F1080254F8086CA818B0420AD098
:10139000596801F108021A4495420BD03846BDE85D
:1013A000F840FFF7FDBE4668A8588A19083204E9DC
:1013B0000500EDE714E905000A44083283E805005A
:1013C000ECE700BF0000000000000000000000008B
:1013D00038B50368044698420D4609D01A68184685
:1013E000226054601D62FFF70BFE23689C42F5D11A
:1013F00038BD00BF00000000000000000000000039
:1014000038B50E4B9C69636A04F124059D42206245
:1014100007D01A6818466262FFF7F2FD636AAB42B2
:10142000F7D1637F9B0704D1226963691A6122693E
:1014300053610F20BDE83840FFF7EABB30100020B1
:10144000202383F31188FFF7DBBF00BF00000000FB
:10145000FEE700BF000000000000000000000000E8
:10146000FEE700BF000000000000000000000000D8
:10147000704700BF000000000000000000000000F6
:10148000704700BF000000000000000000000000E6
:10149000022906D0032906D00129064818BF0020DA
:1014A000704705487047032A9ABF044B03EBC200FC
:1014B00000207047D03E000840420008B03E0008BF
:1014C000022949D1F8B506460D46202383F3118839
:1014D000224C0121224AFFF70BFB30462946214AC4
:1014E000FFF706FBA369D4F8542204F10C0700258A
:1014F00016683846636223626FF001016561FFF789
:1015000067FFE26B236CA2649B1A6264A36304F11D
:1015100030006FF00101FFF75BFF201D0121FFF795
:1015200087FDD4F8543201225979304606EB810305
:10153000DB68B3F812E09B69C3F804E01A70DF605F
:101540009D6001F0CDFED4F8543230465979FEF753
:10155000F7FF85F31188F8BD704700BFD00D00205C
:1015600050420008103E000800000000000000008B
:1015700038B500F0F000084C40F470431B024FF403
:1015800070424FF400656261012025612361FFF71D
:1015900027FD656138BD00BF000C01400000000060
:1015A000002903DD0849094A01F0A2BD202383F385
:1015B00011884FF080435A6A002383F3118804494D
:1015C00092B201F095BD00BF103F00081C3F00081B
:1015D000243F0008000000000000000000000000A0
:1015E0002DE9F047794B04689B69794A98B0D0F8A7
:1015F0000480784920469A6101F07AFD08AE0DF129
:101600005F072046744901F073FD35462368204684
:101610005B680DF107010122984770B39DF8071030
:10162000042926D0082911D07F290FD00D2935D0C3
:101630001F29EBD9BD42E9D2236820469B68984711
:101640009DF80730013505F8013CDFE7B542DDD0F4
:10165000236820469B689847236820469B68202182
:101660009847236820469B689DF80710013D9847DE
:10167000CCE72046594901F03BFD2046584901F08E
:1016800037FD202383F3118800215648FFF7D0FC53
:101690000020FFF7B5FE18B0BDE8F087524920469C
:1016A00001F026FD002302A92B7030461D4602F0F2
:1016B0000FFA02A9824600200DF10C0902F008FA87
:1016C00050B1042D1DD049F8040B02A900200135AA
:1016D00002F0FEF90028F4D118AB03EB850343F8C0
:1016E000540CBAF1000F8CD05046404902F0D8FAA1
:1016F00070B9002DC5D020463D493C4A01F0F8FCA8
:101700007FE720463B4901F0F3FC0023079378E78D
:101710005046394902F0C4FA30B92046C5B13449BF
:10172000354A01F0E5FC6CE7344B1868994618B966
:1017300031E059F8080F70B3514602F0B1FA0028B1
:10174000F7D1D9F80430294603AA2046984758E72C
:101750002B4901F0CDFC294B1A681D463AB12046B1
:10176000284901F0C5FC55F8082F002AF7D1B8F137
:10177000000F0BD0D8F8002042B145462046214941
:1017800001F0B6FC55F8082F002AF7D1204616497B
:1017900001F0AEFC35E7B8F1000F0DD0D8F800002D
:1017A00050B1C14602E059F8080F28B1514602F085
:1017B00077FA0028F7D1C4E752462046124901F0D3
:1017C00097FC2046114901F093FC1AE730100020E5
:1017D0002C3F0008343F0008583F0008603F0008D5
:1017E000B43F00084C0C0020084400087C3F00086F
:1017F000103F0008643F0008843F00080C080020E8
:101800008C3F0008A43F0008A83F0008AC3F000838
:1018100010B50446064B4FF480625A61FFF7A8FEEC
:10182000200100F0F000BDE81040FFF7A1BE00BFAE
:10183000000C01400000000000000000000000005B
:10184000F0B5164C83B002AD05F8010D20460E46EA
:101850001746FFF7DDFC02F0C3F82946012002F02D
:10186000DFF8202383F3118803253846314604F836
:101870000C5C02F00DF90A4B221F9B6928461A6284
:1018800044F8043CFFF7C4F9002383F3118802F005
:10189000B7F82046FFF784FC03B0F0BDC411002068
:1018A00030100020000000000000000000000000D8
:1018B000F0B517460E4683B00C4D02AC40F0200048
:1018C00004F8010D2846FFF7A3FC02F089F8214631
:1018D000012002F0A5F83846314602F0A1F802F0E6
:1018E0008FF82846FFF75CFC03B0F0BDC411002060
:1018F0002DE9F0436B4B6C4C83B01B605B600022A6
:10190000C8209A60FFF76CFB20464021102201F0AE
:1019100067FF20468021102201F062FF634D2046C0
:101920002021102201F05CFF20461021062201F048
:1019300057FF28460121062201F052FF02210A46E4
:10194000284601F04DFF10230122236120232A6144
:1019500083F31188564C574B22786360012A6ED06E
:101960005A89E36AA16A100523F4706348BF43F4FF
:10197000A06321F47061E36248BF41F4A061E369B0
:10198000A16242F44172002507211D801A809980CE
:101990001A88022692B242F040021A80267085F31D
:1019A0001188454B0324B3F800C093F802E0DFF838
:1019B0004481424B6946224610200127ADF800C001
:1019C0008DF802E01C6088F80070FFF771FF01A934
:1019D00022461020FFF734FF684601A9224602F094
:1019E000D7F8002842D1364A3649374B11601F706C
:1019F000DFF804C1DFF804E1DFF80491DFF80481C7
:101A0000324F334E334D00244FF432713F22324B6C
:101A1000324889F80040C8F80040CCF80040CEF8C1
:101A200000403C8034702C7001F042FF01231846C6
:101A30002B492C4A0B70137003B0BDE8F0832A4980
:101A4000206A01F07DFF2949606A01F079FF284989
:101A5000256A606A8B69E2692D68006843F48053E7
:101A60000C328B61AA606368826079E70E4840217E
:101A7000324601F0B5FE0C481021324601F0B0FEAE
:101A800009482021324601F0ABFE3246064880214B
:101A900001F0A6FE0A4A88F80050136843F00403D8
:101AA0001360A5E7500C002000080140000C014025
:101AB000B8110020003F0008703D0008B00D002064
:101AC000F00B002056241300600C0020080B0020AF
:101AD000500B002007080020D11B00083808002008
:101AE0003C0B0020000B002071300008912D0008F5
:101AF00000100240100B0020240B0020040B0020DB
:101B0000080800200C0B002000000000000000006E
:101B100030B50B4D83B0E22302AC04F8013D2846FA
:101B2000FFF776FB01F05CFF2146012001F078FF12
:101B300001F066FF2846FFF733FB03B030BD00BF5E
:101B4000C4110020000000000000000000000000A0
:101B500030B50B4D83B0E12302AC04F8013D2846BB
:101B6000FFF756FB01F03CFF2146012001F058FF32
:101B700001F046FF2846FFF713FB03B030BD00BF5E
:101B8000C411002000000000000000000000000060
:101B900000B583B000200DF107010122FFF750FED0
:101BA0009DF8073013F0010008D143F001030DF157
:101BB000070101228DF80730FFF77AFE03B05DF8C8
:101BC00004FB00BF00000000000000000000000057
:101BD0002DE9804889B0694B69489969694D6A4B1C
:101BE00000AF0122DFF8B8A188611A7005F108087A
:101BF00007F112097B68422203F1010B5FFA8BF3B4
:101C00003A2B08BF30231846B8744FF041007B6070
:101C10005E4B38741B685D48013303607A74C7F803
:101C200000D007F110014122002301E011F8012F3B
:101C300082EA13223AF81220494582EA03239BB232
:101C4000F4D13A691C0A3B77514B110C5148FC7690
:101C50003A835C7AB976FFF7DBFA0122002007F1BC
:101C60000E01FFF7EDFDBB7BDA0708D523F001037A
:101C7000002007F10C0101223B73FFF719FE7023CE
:101C8000072007F10D0101227B73FFF711FEFFF71B
:101C90003FFFFFF75DFF002C6ED0A0233E48BB73D3
:101CA000FFF7B6FA01F09CFE012007F10E0101F0EA
:101CB000B7FE052007F1180101F0B2FE01F0A0FE09
:101CC0003548FFF76DFA3C24FF2604E01BF0100FA7
:101CD00042D1013C48D03048BE73FFF799FA01F079
:101CE0007FFE012007F10E0101F09AFE202383F30D
:101CF00011884FF0030B07F10E01012085F800B0A9
:101D000001F0C6FE1D4B58469B69C3F82080AB60AE
:101D1000FEF77EFF002383F3118801F071FE1E4859
:101D2000FFF73EFA97F80EB00220FFF759F91BF0C3
:101D3000200FCBD0FFF72CFF1648FFF731FA174AD8
:101D40004FF47A73D7F800D01360104A0023C820EC
:101D50001360FFF745F94DE71023072007F10F0146
:101D60000122FB73FFF7A4FDFFF712FF0948FFF7FD
:101D700017FAD7F800D0E8E7B0238FE7301000203B
:101D8000C03F0008B8110020000B00200C0B002001
:101D9000F80B0020500C0020C4110020040B002080
:101DA00040400008000000000000000000000000AB
:101DB0002DE9F04F81468A468B4687B015460DF1D6
:101DC0000D0303AA9B1A01934FF000089BF8001023
:101DD0000BF1010379B1252911D09B46D9F80020D8
:101DE0004846926890479BF8001008F101080BF1F3
:101DF00001030029EFD1404607B0BDE8F08F9BF802
:101E0000012000262D2A03BF9BF802200BF10203BC
:101E10004FF0010A4FF0000A302A03BF5A7801330D
:101E200030272027591C06E02B7804359BF800202A
:101E300003EB40060131A2F13003DBB2092B8B46E4
:101E400006EB8600F2D92A2AEED02E2A4FF00001A6
:101E500043D002F0DF034C2B4ED0A2F144003428D3
:101E600000F2F680DFE810F0EA00F400F400F4007D
:101E7000F400EA00F400F400F400F400F400E800D8
:101E8000F400F400F400F400F400DD00F400F400C9
:101E9000F100F400F400F400F400F400F400F400A5
:101EA000F400F400F400A100EA00F400F400F400EF
:101EB000F400EA00F400F400F400F400F400E80098
:101EC000F400F400F4007100F400DD00F400F4000C
:101ED000F1002B78043503EB40011BF8012B01EBDB
:101EE0008100A2F13003DBB2092BF4D92A2AF0D009
:101EF00002F0DF034C2BB0D19BF80030002B00F038
:101F0000A780A3F144020BF1010B342A00F29F8059
:101F1000DFE802F0949D9D9D9D949D9D9D9D9D92C9
:101F20009D9D9D9D9D879D9D9B9D9D9D9D9D9D9DF9
:101F30009D9D9D4B949D9D9D9D949D9D9D9D9D9240
:101F40009D9D9D1B9D879D9D9B002C68594B043535
:101F5000002C08BF1C462378002900F09380002B3A
:101F600000F095800139204601E0013903D410F8D2
:101F7000013F002BF9D1001B361A431E202726EA09
:101F8000E676BAF1000F1FD0002B009334DA002E52
:101F90003FF41CAF3446D9F8003048469B683946B8
:101FA0009847013CF7D1B04410E7019A2B681046DE
:101FB0008DF80C300435531E202703AC361A26EA60
:101FC000E676BAF1000FDFD10093C6F1000ABAF14C
:101FD000000F44D021782D2946D05646D9F800303C
:101FE00048469B68394698470136F7D1009BCAEBB3
:101FF0000808002BFFF6EAAEDDF800A0D9F80030A3
:102000000AF1FF3A9B68484614F8011B9847BAF159
:10201000FF3FF3D1009B08F10108002BA8BF9844B3
:10202000B5E70A22296803A8043501F071FD03AB66
:10203000C01A431E03ACC1E70822F3E72968043540
:1020400000292EDB03A80A22EFE71022EAE71A464E
:10205000019B03AC18468DF80C20013BAEE7009BBA
:102060005646002BC8DAB1E6302FB6D1D9F8003089
:1020700048469B689847009B0134013B08F10108E2
:102080000093AAE747F6FE71002B7FF46CAF26EAB7
:10209000E676BAF1000F0BD14FF0FF330093202703
:1020A00093E72D2349428DF80C300DF10D00CAE75E
:1020B00020276CE7C83F0008000000000000000077
:1020C0000EB400B582B003AB53F8041B1A4601935B
:1020D000FFF76EFE02B05DF804EB03B0704700BF7F
:1020E000002902DD1649FFF7EBBF70B5064615481B
:1020F000FFF78EF8144B9B68FBB1002425465A6805
:102100001B6801341544002BF9D10E48FFF748F83D
:102110000E4A0F4B12681B683046D21A0D49FFF762
:10212000CFFF224630460C49FFF7CAFF30462A4609
:10213000BDE870400949FFF7C3BF1C461D46E4E7F0
:10214000D03F0008380C0020280C0020F40B0020A1
:10215000480C0020E03F000800400008184000083C
:102160004FF40056B0460C4B0C4A9B6980B50C4DA1
:102170000C4F9A613B78C5F81480042B0CBF4FF4C8
:10218000FA744FF4FA642046FEF72AFF20462E61C7
:10219000FEF726FFEEE700BF3010002020430008C6
:1021A000001001405C0B0020000000000000000057
:1021B000002902DD1E49FFF783BF2DE9F0471D49C5
:1021C00084B006464FF02008FFF77AFF88F31188A5
:1021D000DFF868900027D9F81040A37F0133A37778
:1021E00087F31188DFF858A000E02C46A268E36866
:1021F0000092A27F3046013A0192227F0E495AF89E
:10220000222002922246FFF75BFF88F3118825699E
:102210004D4517BFAB7F00250133AB7787F311889E
:102220002046FFF765F8002DDFD104B0BDE8F08748
:10223000284300083C430008644300083010002095
:10224000E044000800000000000000000000000062
:1022500000291ADC2DE9F0410446DFF840800C4FDC
:102260002026002586F31188D8F808305B6A85F3AC
:1022700011889BB21A46204606493B60FFF720FFB3
:102280004FF47A70FEF7ACFEECE70349FFF718BF96
:10229000EC0B00208043000890430008E00B002076
:1022A000002902DD2149FFF70BBFF0B5204B85B0B7
:1022B0001A6820492048FFF703FF1F481F4901F013
:1022C0004FFC1F4C1F4F002505F10A0021463A68BC
:1022D000FFF7B6FAA078E178227966782378019042
:1022E0000291039200962A4613481749013501F0DE
:1022F00037FC062D04F10504E6D1144C10202146CC
:102300000322FFF79DFAE0782179A5782278637897
:102310000190029100950E49074801F021FC064802
:102320000C4905B0BDE8F04001F01ABC904300082C
:10233000F00B0020A0430008D00D0020AC430008A3
:10234000040C0020B00D0020B8430008540B0020FE
:10235000E043000804440008000000000000000002
:1023600000210A4608460E46B94B4FF0FF341D695E
:102370002DE980481C611961DD68DC60D960DC6989
:10238000B44D44F08054DC61DC69B34F44F0006428
:10239000DC612B68DFF830E343F48073AF4C2B60D3
:1023A0008DB039605EF8023000211E6044F8306064
:1023B0000130072802F10C02F4D141F20A0B41F27C
:1023C00018098C46A64B4FF0FF32DFF884E25A60C2
:1023D000DEF81860A34BA44DA448A54FDFF8ECA28B
:1023E000DFF8EC8246F07D06CEF81860A14CEA607A
:1023F0005960C5F804A0C5F80080C26099604760C4
:10240000596107609C4F4FF08830AEF5803E9B4E7F
:10241000CEF80C20DFF8BC82DF61CEF80400984FC4
:102420001C620C34CEF8000005F58055F26003F113
:102430000C0E5C620AF5637A01247060C3F828B060
:10244000C6F800A0C3F82C90EA60C3F80CE06860FE
:10245000C3F810E02860A8F800201C7079603C7078
:1024600007F1280307F1440243F804CF9342C3F86D
:102470001CC04FF00006F7D14FF6FF7548F69F4B92
:102480004FF6FF01DFF8C881DFF84CA2D8F81C3006
:102490007C4A43F00103C8F81C30DAF804407A485B
:1024A0004FF080434FF001094FF0800C4FF0805EF9
:1024B00044F40064CAF80440C3F828B0DD629E61A9
:1024C0005E63DE605E60C3F81490C3F8009080F82D
:1024D0001CC3CDF804C0C0F880E1C0F800E09660ED
:1024E000D0686A4B01400B436949D360CB686948A7
:1024F00043F08073CB6003684FF0100E43EA09038A
:102500003E817E81036082F81FE04FF0200E624C16
:102510004FF0FF3304F11C0106A84FF0000A4FF002
:10252000000B646082F822E0E161A660246024610F
:1025300064612162CDE90AAB0693A584E68426672F
:1025400007960896099601F0F3F906A8FEF720FB16
:10255000524A534D22F0070B5249089A6069524B78
:1025600005F1100E22674FF0400A04F12C02DFF84B
:102570006CC129604D49C5F810E0C5F814E023F09E
:10258000070384F849606666266684F84A906664A4
:10259000E4632064AE61C4F834A0C4F868A004F118
:1025A000500E02616261A26104F15402C1F800B0F0
:1025B000AE60EE6084F84890C4F850E06265A265B1
:1025C000CCF800304FF0020B86F3118862B6384A1F
:1025D000A36904F178009A61D8214A46354B01F08D
:1025E00067F9354B514683615A46204801F0F8F8A7
:1025F000DDF804C05A4661461C4801F0F1F82F4A44
:102600002F4B82F80090936056805660202383F30E
:10261000118813782B484B45506000F097834FF694
:10262000FF7693680021196059609962D960DE6273
:102630009969067841F4807141F00101996121495D
:10264000002E4DD14978012900F08F8348E000BF6A
:102650000010024000700040E811002080110020AE
:1026600000000240B811002000080140000C0140A9
:10267000388888889C4200080030014000140140DE
:102680005C0B002000ED00E000E100E00003FA0533
:10269000F0ED00E0001000E03010002000500020BD
:1026A000280C002021030008F7110020F40B002063
:1026B00000430008D10300080C440008E00B002090
:1026C000000800402408002090420008B884888850
:1026D000884B888828100020002004E0480C002047
:1026E000012199608178022601290CBF1321112153
:1026F00019624FF0000A16708AF31188202383F3C1
:10270000118893684FF001084FF00309C3F8008067
:1027100082F800908AF31188DFF840B34FF47C41CF
:102720000622584601F05CF84FF47C43CBF8143095
:102730001420FEF755FC4846FFF76AF81420FEF710
:102740004FFC4846FFF764F81420FEF749FC484662
:10275000FFF75EF81420FEF743FC3046FFF758F809
:102760001420FEF73DFC2820FFF752F81420FEF756
:1027700037FC4046FFF74CF81420FEF731FC0C20E4
:10278000FFF746F81420FEF72BFCFFF7B1F8AF4B2C
:10279000AF4E1B784FF04C0E25202621272286F8BD
:1027A000008086F8019086F8028086F803A086F8FB
:1027B000049086F8098086F805E0B071F1713272F4
:1027C000002B40F07181DFF8C482A24B4146DFF854
:1027D000C0B2DFF8C0C2012008F1540241F8043B46
:1027E00008F10C0E08F5AA7300264FF4807908F55D
:1027F000157A88F8080008F13000C8F81460C8F8A5
:102800002C80C8F83890C8F85080C8F828B0C8F8AC
:1028100040A0C8F84CC0C8F80410C8F80CE0C8F8CC
:1028200010E0C8F81820C8F82420C8F82020C8F8FC
:102830001C30C8F83C30C8F84830C8F84430C8F8F4
:102840003000C8F834004FF0200989F31188824A1B
:102850000223C7F82C80C7F84880C7F83080C8F832
:10286000542288F8083086F311887C4B4FF40072AC
:102870001A6140F6B830FEF7B3FB89F31188784847
:10288000784B024600EB090A7B6042F8046F524520
:102890004FF00003F9D197F800C0734ABCF1010F63
:1028A00000F09A8002233B70002686F311886B4B60
:1028B0004FF400726D4F5A616D484FF4A47140227D
:1028C0006C4B3F60DFF8D0A100F0F2FFDFF8CC9155
:1028D000694F46B1337F0F2B5ED04FF4FA60FEF79D
:1028E0007FFB002EF6D1D8F854321B681B78042BDE
:1028F000F0D16248FEF78CFC614A40F6C70003E065
:10290000596881424DD81A461368002BF8D15B48AC
:10291000FEF746FC2B68002BDFD04FF40D60984784
:102920000028DAD040F6C803564A00F1080680E8CD
:102930000C00002ED1D0202383F31188022360697C
:1029400006F6A401F1604FF0400E4FF0000B01219C
:10295000337706F1240206F1280370613461C6F86A
:1029600008E0C6F8A4A8C6F8A898C6F8C478C6F8BF
:102970003CE0C6F838B0C6F834B0C6F818B0B17745
:102980000661304672627177B362F362666100F08D
:102990005FFF8BF31188A0E73046FEF7A9FC002605
:1029A0009BE7B1F50D6F08D2196811601E463348D8
:1029B00046F8085BFEF7F4FBBBE740F6C80E1E685E
:1029C000A1F50D6103F50D60C3F8D068C3F8D41804
:1029D0001060C3F804E0E9E79B46DFF8C4902A4999
:1029E000D9F81C60DFF8BCE046F40006A2F87C30A1
:1029F00082F87E3082F87F3013815381C9F81C60E1
:102A00004FF400264FF0D009CEF840C081F8139360
:102A10004FF0E00CC1F880614FF480190E6002267F
:102A200081F814C3C1F88091C1F80090CEF840300D
:102A3000167040F804BF82454FF00003F9D10A48F0
:102A400087F8643000F0CCFC2CE700BF600C00205D
:102A5000F80B00203045000880420008000C0140BF
:102A6000640B0020F04200085C0B00204C0C00209E
:102A7000680C00206121000811020008380C0020B9
:102A8000300C0020280C002000E100E0D00D0020D8
:102A9000710A000891040008E115000820450008AB
:102AA00000100240005C0040B148FEF7B1FB424616
:102AB000504606A9FEF7C4FE9DF818309A0708D5BF
:102AC0000CA923F0020301F8263D50464246FEF7CA
:102AD000EFFE03230CA901F8253D02200122FEF799
:102AE000E7FE4FF008080CA901F8248D11200122FF
:102AF000FEF7DEFE0CA901F8238D12200122FEF75D
:102B0000D7FE012296F80280002006A9FEF798FE63
:102B10009DF81820B8F1010F02F0F30300F01381C3
:102B2000B8F1020F01D143F00C039A4206D00CA970
:102B300001F8223D00200122FEF7BAFE0122042006
:102B400006A996F80480FEF77BFE9DF8182008F091
:102B50000F0822F00F0343EA08039A4206D00CA99B
:102B600001F8213D04200122FEF7A2FE01220420EB
:102B700006A996F80380FEF763FE9DF8182002F080
:102B80000F0343EA0813DBB29A4206D00CA901F8FE
:102B9000203D04200122FEF78BFE0122062006A91B
:102BA00096F80180FEF74CFE9DF81820B8F1030F4F
:102BB00022F0070343EA480303F0FE0308BF43F093
:102BC00001039A4206D00CA901F81F3D06200122FC
:102BD000FEF76EFE0122062006A996F80080FEF799
:102BE0002FFE9DF8182002F0D703B8F1000F00F077
:102BF000A780B8F1020F01D143F008039A4206D032
:102C00000CA901F81E3D06200122FEF751FE4FF0EF
:102C100001080CA901F81D8D42460320FEF748FE6D
:102C200073790CA903F07F0301F81C3D424605208F
:102C3000FEF73EFE4246404606A9FEF701FE9DF81D
:102C4000183003F00302032A08D00CA943F0030351
:102C500001F81B3D40464246FEF72AFE01220220B3
:102C600006A9FEF7EDFD9DF8183003F00302032AD4
:102C700008D00CA943F0030301F81A3D02200122F9
:102C8000FEF716FE15221623DFF8ECA0B271F371E1
:102C9000DFF8E880374BBAF80000DFF8E4904FF037
:102CA000170C1946188083F802C088F802C0D9F8BA
:102CB0000020A8F80000102086F808C0FEF7F8FDF4
:102CC0004146D9F800200A20FEF7F2FD25222623EE
:102CD000B271F371BAF800C0272308F1050E7146EE
:102CE00088F80730D9F800200B20A8F805C0337207
:102CF000FEF7DEFD0020012206A9FEF7A1FD9DF8EA
:102D0000183003F0020202F0FF003AB90CA943F0B8
:102D1000020301F8193D0122FEF7CAFDFEF738FF54
:102D2000FEF7F6FEFEF714FF702306A90720012226
:102D30008DF81830FEF7BCFD0D48FEF731FA42E57C
:102D400043F020035AE743F00803EEE6D8F81C30BE
:102D500043F00403C8F81C30D8F8103043F00403E3
:102D6000C8F81030C8F8106059E403219960B9E43C
:102D7000500C0020540B0020FE0B0020040C0020FF
:102D8000B00D002000000000000000000000000066
:102D90000B0700D4704772B6014B024A9A62FEE7F5
:102DA0003010002050450008000000000000000026
:102DB000FDF7BEBE000000000000000000000000A3
:102DC0002DE9F0414FF0804423699B0703D4BDE80F
:102DD000F041FDF7ADBE00272761202585F311885E
:102DE0001E4E626AB6F826E0F36990B2CEEB00019F
:102DF0001A8989B2914206F11C081BD319687244E2
:102E00004145F284DA68C1F80480F161DF6008BFEF
:102E1000E76087F311881869904785F31188626A23
:102E2000B6F826E0F36990B2CEEB00011A8989B2B8
:102E30008A42E3D943450AD07244121A92B2012A57
:102E400098BF0222024492B24FF080435A6300239B
:102E500083F31188BDE8F041FDF76ABE3010002011
:102E6000074B08481968026BC1F3036110B50C06E3
:102E70005C600AB1406B9047BDE81040FDF758BE5A
:102E8000000002408011002000000000000000004F
:102E9000074B08481968826AC1F3035110B50C0545
:102EA0005C600AB1C06A9047BDE81040FDF740BEC3
:102EB000000002408011002000000000000000001F
:102EC000074B08481968026AC1F3034110B50C04A6
:102ED0005C600AB1406A9047BDE81040FDF728BE2B
:102EE00000000240801100200000000000000000EF
:102EF000074B084819688269C1F3033110B50C0308
:102F00005C600AB1C0699047BDE81040FDF710BE93
:102F100000000240801100200000000000000000BE
:102F2000074B084819680269C1F3032110B50C0268
:102F30005C600AB140699047BDE81040FDF7F8BDFC
:102F4000000002408011002000000000000000008E
:102F5000074B084819688268C1F3031110B50C01CA
:102F60005C600AB1C0689047BDE81040FDF7E0BD65
:102F7000000002408011002000000000000000005E
:102F800008B5074B074A196801F00F01596013682B
:102F90000BB150689847BDE80840FDF7C9BD00BFB8
:102FA000000002408011002000000000000000002E
:102FB000F8B503685FEA520C03F1005E0EF5405E5F
:102FC0004FEA4E0E426018D0774664460E69886913
:102FD000431CB3428B6128BFCB6800785D1C8D61B8
:102FE0001B78B54240EA032324BFC8688861013CCE
:102FF00047F8043BEBD10EEB8C0ED3070BD5886959
:103000000C69431C8B61A342007828BFCB68CEF8C3
:10301000000028BF8B61EFF31283CBB9EFF3058378
:10302000202383F311888B6808461A448A600021A4
:10303000FEF7CEF9EFF30584C4F308041CB10023B6
:1030400083F31188F8BDFDF7D3FD84F31188F8BD33
:103050008B6808461A448A60BDE8F8400021FEF7F4
:10306000B7B900BF00000000000000000000000031
:10307000F8B50B0731D4416A026A91E8C00035689F
:103080000F2325F00F053560097A156803FA01F161
:1030900039602968466821F00F012960157A516866
:1030A0003268AB4004460B60A2B104230370904722
:1030B0002378042B0ED0202383F31188A3682BB12F
:1030C0000022A26018461A62FDF79AFF002383F3DC
:1030D0001188F8BD02232370EDE772B6014B024A56
:1030E0009A62FEE730100020504500080000000002
:1030F0000EB400B582B003AB53F8041B1A4601931B
:10310000FEF756FE02B05DF804EB03B0704700BF57
:10311000002903DD19491A4AFFF7EABF10B5044632
:1031200082B01849184AFFF7E3FF20461749184AAA
:10313000FFF7DEFF20461749174AFFF7D9FF204661
:103140001649174AFFF7D4FF20461649164AFFF7DB
:10315000CFFF20461549164AFFF7CAFF20461549FA
:10316000154AFFF7C5FF154B204600931449154A31
:10317000154BFFF7BDFF02B010BD00BF103F0008A8
:10318000384000085C450008704500087845000894
:103190008C450008D4450008E8450008F0450008C3
:1031A0000446000810460008244600083C46000873
:1031B000504600087C46000890460008CC460008AF
:1031C000A4460008BC460008C846000800000000ED
:1031D0001F4B19461A6842F001021A600B681C4A1C
:1031E0009B07FBD511461368002003F0F903136019
:1031F00050604B68164A13F00C0FFAD11146136851
:1032000043F4803313600B68114A9803FBD51146D1
:10321000536843F4E8135360136843F080731360FA
:103220000B680B4A9B01FBD5114610B4094B0A4CA5
:10323000122054601860536843F0020353604B68D7
:1032400003F00C03082BFAD15DF8044B704700BF64
:10325000001002400020024000641D000000000039
:1032600000EB8100C36830B458690C464268198A83
:1032700003788A4228BF0A4603BB1749531C096DCD
:103280005B0801F1005101F5405101EBC4044FEA24
:1032900044042168C06801F1005101F5405165689E
:1032A0004FEA4101626007D002380A1F30F8021F5E
:1032B000013B42F8041FF9D130BC7047064BC1688E
:1032C000186D00F1005000F5405000EBC4004000C4
:1032D00030BCFFF76DBE00BF005C00400000000086
:1032E00000EB8101C9688A69536833B1498A013B9F
:1032F0000B44B3FBF1F31382704701231382704731
:1033000000EB8103DB68F0B41A6802F00302013AB3
:10331000022A96BF2E4C4FF4007534F812509A686A
:103320000AB145F02005DA680AB145F4005547F6C0
:10333000700645EA010424F4784424F0F0048A007D
:1033400044F4004402F1804202F5B84244F08004A3
:10335000146014682E4074405D8A44F4004444F0C4
:1033600080043E2D146005F1FF3426D844F001049A
:10337000013404EBD474640204F47C44154A1E8ABC
:10338000126D002702F1005303F5405303EBC10116
:1033900049004B684F60CB68CC60D0F8802093190F
:1033A000C0F880300B680A60D0F880301D44C0F847
:1033B00080508A68F0BC8B60704744F01F04013471
:1033C00064116FEAC4646FEA5444A4B2D6E700BF44
:1033D00030470008005C00400000000000000000D2
:1033E0004168F0B5C9680D4B00290D4D4FF0000440
:1033F0000CBF4FF41C474FF41E474FF0800E402681
:103400001C6521465C64C3F84CE01F64C0F8806012
:10341000C560BDE8F040FFF773BF00BF005C00402F
:10342000E04600080000000000000000000000006E
:103430002DE9F04F994B85B05C6C630500F19C81E0
:10344000270511D5DFF858B2944ADBF80410136C45
:103450000D6843F00803136415B158460321A847CB
:103460008E4B6FF400625A64E60408D58B4B9A6C5D
:10347000150440F17181894B6FF480525A64A005A4
:103480000BD5DFF81CB2DBF80430DB680BB1584613
:103490009847824B6FF400725A64210440F1D38044
:1034A000DFF8FCB1DFF8F4A104F00F044FEA840860
:1034B00008F1804505F5B845D5F80090A61C0BEB42
:1034C000860319F0800F5F6865D02B68E00023F455
:1034D000784323F0F00343F400432B60DAF85030D4
:1034E000D7F814E003F1005303F5405303445B00A5
:1034F0005968DEF80830DEF804200B44CEF80830B6
:10350000D31A00F0BD803A8A9EF800C09A4228BFC4
:103510001A46BCF1000F40F01281531C0193DEF8F3
:103520000C301944CEF80C10DAF850E0019B0EF183
:10353000005E0EF5405E70444000D0F800E05B088D
:103540000EF1005E0EF5405ED0F804C04FEA4E0E5C
:10355000426008D00239AEF1040231F8020F013B9B
:1035600042F8040FF9D1202383F3118808F1804831
:1035700008F5B848D8F80030002223F4F04323F0CF
:10358000400383F0300343F4004343F08003C8F862
:10359000003082F3118819F4004F4FD02B6819F4D2
:1035A000006F23F4784323F0F00343F080032B6093
:1035B0005ED1DAF85030B96903F1005303F5405396
:1035C00003EBC4035B00DA68104601920A78C0F38B
:1035D0000908002A66D19A6808F1010302F1005235
:1035E00002F540525B084FEA4202C86809D08E4695
:1035F00052F8041B013B20F8021BF9D17146DEF89A
:103600000C004044C860088A7F8A8A684B68013889
:1036100080B24244C8EB0303B84508828A604B601D
:1036200016D3A8B12B6823F4904323F0700383F4DE
:10363000405343F4004343F080032B60DAF84440E6
:1036400023043FF531AF05B0BDE8F04FFDF770BA88
:10365000BBF80A300BEB86060121A140726823EA11
:103660000103D268ABF80A3021460D489047E5E7E0
:103670000BEB8606736821465B6809489847DDE7CF
:10368000074B01221B89A24023EA0203044A214678
:1036900013811046BB6898477DE700BF005C00407F
:1036A0005C0B00209B685FEA580203F1005303F5AE
:1036B00040534FEA4303C9680293039221D0104656
:1036C0009E464B695EF8042B03F10109C1F8149082
:1036D0001A700B694FEA122C4A699A4228BFCA68CD
:1036E000531C4B6182F800C00B694A699A4224BF9F
:1036F000CB684B610138E4D1029B039A03EB820350
:103700000293019BDA070BD5029A4B691268581C89
:1037100048611A700B694A699A4224BFCB684B61B1
:10372000202383F311888B68084643448B60002173
:10373000FDF74EFE002383F31188B96963E7DAF8D9
:103740005030DEF80C1003F1005303F540531844D9
:103750004000FFF72DFC06E7DFF874B01A6CDBF8C9
:10376000041022F008020D681A64002D3FF483AEA5
:1037700058460421A8477EE6DFF854B00023022211
:103780001946ABF87C308BF87E308BF87F30ABF885
:103790000830ABF80A308BF800200BF108030BF16E
:1037A000280243F8041F93424FF00005F9D108485E
:1037B0008BF86450FFF714FEDBF804301B6813B17C
:1037C000294603489847034B6FF480625A6437E6F2
:1037D0005C0B0020005C00400000000000000000C6
:1037E000032AF0B52CD0042A08BF416100231C46EF
:1037F0001D461E46DFF84CE008271EF8022011F097
:10380000800F4FEA05154FEA03134FEA06164FEAF9
:1038100004140CBF45F00F05134311F4004F0CBF07
:1038200046F00F061443013F4FEA4101E7D14268D9
:10383000164034434460026815402B430360F0BDDA
:103840000161D3E7104700080000000000000000FD
:1038500070B40446134B81689D690026A8682662EF
:1038600081420BD826771B689A689142FBD95A6827
:103870002360626014605C6070BC70471A462E77EB
:10388000126891688842FBD95068012668602A60F6
:10389000056055602677294620469C6170BCFCF780
:1038A000AFBC00BF3010002000000000000000008E
:1038B0002DE9F84F9A4696460446202383F3118853
:1038C000174E24397269DFF85CB00025471800F103
:1038D000280300F1240C4FF002094FF00108C760E3
:1038E00040F801A07D60C7F820B0C0F808E006618C
:1038F00042614577C0F83CE085634563856180F8A7
:103900001C9080F81E801061C0F824C08362C362DE
:103910007061FFF79DFF85F311882046BDE8F88FA1
:10392000301000201102000800000000000000001C
:10393000014B5B6883607047001000E000000000EE
:10394000F0B4214D447A01232A6803FA04F61642A2
:1039500035D11E4B32431E4F03EBC40643F83410DF
:1039600053062A60776004D01A4A536943F0010372
:1039700053610268466815680F2425F00F0515602D
:10398000057A0023AC4034601360D1B1817A012004
:103990004A0901F1604401F01F0100FA01F11846E3
:1039A000920002F1604202F5614204F56144A025F3
:1039B00084F80053C2F880111160F0BC70471846BB
:1039C000FBE70846F9E700BFE8110020801100205E
:1039D000B8110020001002400000000000000000AC
:1039E000202383F31188054A01235268002110899E
:1039F00052688340536181F311887047B8110020E9
:103A0000202383F31188054A01235268002110897D
:103A100052688340136181F311887047B811002008
:103A2000F8B50746202383F31188154BDFF858C0FB
:103A30001D46186A5A6ADE6A04681268D3F828E0DC
:103A4000032046F08006C4F80CC018706760C4F804
:103A500000E0D1605760166023680A4943F0010313
:103A600023601368896943F00103136045F8081F58
:103A70000D62FDF7CDF8002383F31188F8BD00BF78
:103A8000B811002030100020EC11002000000000D0
:103A9000F0B40D4C0D4F04F120022CCAE66A1268F6
:103AA0001B6845F08004D16050601460DF6058608E
:103AB0001E601168F0BC41F0010111601A6842F00B
:103AC00001021A60704700BFB811002028100020C2
:103AD00038B50D46044690B1286020460B4900F0E9
:103AE00027F904442046094900F0FAF860B1421C65
:103AF00000232A600370237823B1204638BD0C6868
:103B0000002CEAD1002038BD2860F4E740470008C7
:103B1000F0B400F10B073C460D46B1FBF2F6B5FBE5
:103B2000F2F502FB161101F13003392BC8BF01F188
:103B30003703DBB204F8013D3146002DEDD13A1BCD
:103B4000024401E014F8013F00F8013B9042F9D132
:103B5000F0BC704700000000000000000000000002
:103B60000EB400B582B003AB53F8041B04481A46E8
:103B70000193FEF71DF902B05DF804EB03B0704746
:103B8000D00D002000000000000000000000000038
:103B9000032A70B426D940EA01039B0711D00478A8
:103BA0000D78AC4222D10244431C05E013F8014BCE
:103BB00011F8015FAC4219D19342F7D1002070BCDB
:103BC00070470C4603461E6825681846AE422146DB
:103BD00003F1040304F1040404D1043A032A18464F
:103BE0002146F0D8002ADAD11046E8E7601B70BC05
:103BF000704700BF0000000000000000000000004F
:103C000070B4840746D0541E002A41D0CDB203467A
:103C100002E0621EE4B3144603F8015B9A07F8D190
:103C2000032C2ED9CDB245EA05250F2C45EA0545D2
:103C300019D9264603F11002103E0F2E42F8105CEF
:103C400042F80C5C42F8085C42F8045C02F1100295
:103C5000F2D8A4F1100222F00F0204F00F04103287
:103C6000032C13440DD91E462246043A032A46F873
:103C7000045BFAD8221F22F003020432134404F03A
:103C800003042CB1C9B21C4403F8011BA342FBD1AD
:103C900070BC704714460346C2E700BF0000000036
:103CA0000E4B30B41D6802E09B1A14D19AB110F883
:103CB000013BEA18527802F00302012A11F8012BA5
:103CC00008BF2033AC18647804F00304012CEBD156
:103CD00020329B1AEBD0184630BC704734080020C5
:103CE00030B40478ECB10D78ADB1AC420ED00A46D8
:103CF00001E09C4209D012F8013F002BF9D110F8E5
:103D0000014F002CF0D1157800E02546002D08BFAA
:103D1000002030BC704710F8014F0A46002CE3D158
:103D2000F1E7204630BC70470000000000000000B2
:103D300070B40478A4B105460E784EB1B4420AD0EE
:103D40000A4601E09C4206D012F8013F002BF9D14F
:103D5000281A70BC704715F8014F002CEDD1F7E719
:103D60002046F6E700000000000000000000000010
:103D70001516170000000000000000000000000001
:103D80000000000000000000000000000000000033
:103D90000000000000000000000000000000000023
:103DA0000100000000000000000000000000000012
:103DB00009024300020100C03209040000010202AE
:103DC0000100052400100105240100010424020261
:103DD0000524060001070582030800FF090401000D
:103DE000020A0000000705010240000007058102E9
:103DF0004000000000000000000000000000000083
:103E0000040309040000000000000000000000009E
:103E10000300000000000000B102000800000000E4
:103E200010000000140B0020000000000100000042
:103E30000000000000000000000000000000000082
:103E40003803430068006900620069004F005300B6
:103E50002F005200540020005600690072007400C8
:103E6000750061006C00200043004F004D002000F1
:103E700050006F007200740000000000000000009D
:103E80000803330030003100000000000000000093
:103E900012034C006500610066004C006100620086
:103EA000730000000000000000000000000000009F
:103EB00004000000003E000812000000903E0008D0
:103EC00038000000403E000808000000803E000866
:103ED00012000000E03E00080000000000000000AA
:103EE0001201100102000040AF1E04000002010296
:103EF00003010000000000000000000000000000BE
:103F00000000000000080140040030000000000034
:103F100055736167653A2025730D0A0073797374D0
:103F2000696D6500256C750D0A0000007368656C8D
:103F30006C0000000D0A5354656368287361616763
:103F400061722E7465636840676D61696C2E636F82
:103F50006D290D0A0000000067756573743E20002E
:103F60005E440000746F6F206D616E79206172672E
:103F7000756D656E74730D0A0000000065786974D4
:103F80000000000068656C7000000000436F6D6DFC
:103F9000616E64733A2068656C702065786974207E
:103FA000000000002573200025730000203F0D0A4B
:103FB000000000000D0A6C6F676F75740000000050
:103FC0004E72662054580000286E756C6C290000F3
:103FD00055736167653A206D656D0D0A000000003C
:103FE000636F72652066726565206D656D6F7279AD
:103FF000203A2025752062797465730D0A0000004F
:104000006865617020667261676D656E74732020EB
:10401000203A2025750D0A0068656170206672657A
:104020006520746F74616C20203A202575206279B8
:104030007465730D0A000000696E666F0000000071
:1040400000002110422063308440A550C660E77014
:10405000088129914AA16BB18CC1ADD1CEE1EFF1BC
:104060003112100273325222B5529442F772D66264
:10407000399318837BB35AA3BDD39CC3FFF3DEE30C
:104080006224433420040114E664C774A4448554B4
:104090006AA54BB528850995EEE5CFF5ACC58DD55C
:1040A0005336722611163006D776F6669556B44604
:1040B0005BB77AA719973887DFF7FEE79DD7BCC7AC
:1040C000C448E5588668A778400861180228233854
:1040D000CCC9EDD98EE9AFF9488969990AA92BB9FC
:1040E000F55AD44AB77A966A711A500A333A122AA4
:1040F000FDDBDCCBBFFB9EEB799B588B3BBB1AAB4C
:10410000A66C877CE44CC55C222C033C600C411CF3
:10411000AEED8FFDECCDCDDD2AAD0BBD688D499D9B
:10412000977EB66ED55EF44E133E322E511E700E43
:104130009FFFBEEFDDDFFCCF1BBF3AAF599F788FEB
:104140008891A981CAB1EBA10CD12DC14EF16FE1CB
:104150008010A100C230E320045025404670676003
:10416000B9839893FBA3DAB33DC31CD37FE35EF31B
:10417000B1029012F322D232354214527762567253
:10418000EAB5CBA5A89589856EF54FE52CD50DC56B
:10419000E234C324A01481046674476424540544A3
:1041A000DBA7FAB79987B8975FE77EF71DC73CD7BB
:1041B000D326F2369106B0165766767615463456F3
:1041C0004CD96DC90EF92FE9C899E9898AB9ABA90B
:1041D0004458654806782768C018E1088238A32843
:1041E0007DCB5CDB3FEB1EFBF98BD89BBBAB9ABB5B
:1041F000754A545A376A167AF10AD01AB32A923A93
:104200002EFD0FED6CDD4DCDAABD8BADE89DC98DAA
:10421000267C076C645C454CA23C832CE01CC10CE2
:104220001FEF3EFF5DCF7CDF9BAFBABFD98FF89FFA
:10423000176E367E554E745E932EB23ED10EF01E32
:1042400043000000B03D0008000000000000000036
:104250000200000000000000111100089110000889
:1042600040004000400B0020280B0020020000000E
:10427000000000000000000000000000000000003E
:104280005C0B0020010102000000000000000000A3
:10429000080002400400024000000B001C00024025
:1042A0000400024004010C003000024004000240FF
:1042B00008020D0044000240040002400C030E00FE
:1042C000580002400400024010040F006C0002403D
:1042D0000400024014051000800002400400024067
:1042E000180611000000000000000000000000009F
:1042F000C114000891140008C10200080000000069
:104300006D61696E00160118040244080C1014183F
:10431000001C1D1E00000000000000000000000046
:10432000626C696E6B65720055736167653A2074E3
:104330006872656164730D0A00000000202020206F
:104340006164647220202020737461636B2070723A
:10435000696F207265667320202020207374617459
:10436000650D0A002530386C78202530386C7820AF
:1043700025346C752025346C75202539730D0A00A1
:1043800056616C7565203A202535640D00000000EB
:1043900055736167653A20656E630D0A0000000081
:1043A0004572726F723A2025780D0A001B5B313B13
:1043B00033326D0D0A00000052785F6164645B2542
:1043C000645D203A203078255820307825582030F8
:1043D000782558203078255820307825580D0A0047
:1043E00054785F616464203A203078255820307812
:1043F00025582030782558203078255820307825C9
:10440000580D0A001B5B306D0D0A000069646C6575
:10441000000000006D656D00656E630073747300CD
:10442000746864005245414459000000435552529B
:10443000454E540057545354415254005355535011
:10444000454E444544000000515545554544000043
:10445000575453454D00000057544D545800000028
:104460005754434F4E440000534C454550494E4726
:1044700000000000575445584954000057544F520B
:10448000455654005754414E4445565400000000D0
:10449000534E444D53475100534E444D5347000033
:1044A00057544D534700000046494E414C00000010
:1044B00014440008E12000081844000851220008B4
:1044C0001C440008A122000820440008B121000873
:1044D00000000000000000000000000000000000DC
:1044E000244400082C440008344400083C440008DC
:1044F000484400085044000858440008604400083C
:1045000068440008744400087C440008844400089F
:104510009044000898440008A0440008A8440008FB
:10452000D00D0020B0440008000000000000000092
:10453000410E0008610F0008C10E0008D10F0008ED
:10454000B10E0008C10F0008310E0008510F00081D
:10455000444D41206661696C757265004B65726EF1
:10456000656C3A2020202020202025730D0A0000B1
:10457000332E302E31000000436F6D70696C657210
:104580003A202020202025730D0A000047434320B5
:10459000342E392E3320323031353035323920281F
:1045A00072656C6561736529205B41524D2F656DA5
:1045B0006265646465642D345F392D6272616E6377
:1045C00068207265766973696F6E203232373937C9
:1045D000375D000041726368697465637475726564
:1045E0003A2025730D0A000041524D76372D4D00BB
:1045F000436F72652056617269616E743A2025734B
:104600000D0A0000436F727465782D4D3300000071
:10461000506F727420496E666F3A202020202573F7
:104620000D0A0000416476616E636564206B6572FB
:104630006E656C206D6F646500000000506C6174E5
:10464000666F726D3A202020202025730D0A00002D
:1046500053544D33324631307820506572666F7254
:104660006D616E6365204C696E65204D656469758A
:104670006D2044656E73697479000000426F617249
:10468000643A202020202020202025730D0A0000DD
:104690004C6561664C616273204D61706C65204DA4
:1046A000696E69004275696C642074696D653A20B1
:1046B00020202573257325730D0A00004E6F762088
:1046C0003238203230313700202D200030383A3552
:1046D000303A32330000000000000000000000000B
:1046E000000000008106000891050008E1030008B1
:1046F00040004000B40D0020B40D00200100000077
:10470000C80D0020000000000000000000000000B4
:104710000402040808000307080808080808080835
:104720000B0F00000000000000000000000000006F
:10473000000400000006000000000000000000006F
:104740002009000000000000000000000000000040
:104750000020202020202020202028282828282051
:104760002020202020202020202020202020202049
:1047700020881010101010101010101010101010B1
:1047800010040404040404040404041010101010A1
:10479000101041414141414101010101010101016B
:1047A00001010101010101010101010110101010BD
:1047B000101042424242424202020202020202023D
:1047C0000202020202020202020202021010101091
:1047D00020000000000000000000000000000000B9
:1047E00000000000000000000000000000000000C9
:1047F00000000000000000000000000000000000B9
:1048000000000000000000000000000000000000A8
:104810000000000000000000000000000000000098
:104820000000000000000000000000000000000088
:104830000000000000000000000000000000000078
:104840000000000000000000000000000000000068
:014850000067
:104858000096000000000801010000003840000830
:10486800113100081C3F0008A115000800000000D5
:10487800000000000001000000000000000000002F
:08488800000000005047000889
:0400000508000141AD
:00000001FF
